:020000040000FA
:10000000B0020010690100007101000073010000DE
:100010007501000077010000790100000000000078
:100020000000000000000000000000007B01000054
:100030007D010000000000007F0100008101000040
:1000400083010000830100008301000083010000A0
:100050008301000083010000830100008301000090
:100060008301000083010000830100008301000080
:100070008301000083010000830100008301000070
:100080008301000083010000830100008301000060
:100090008301000083010000830100008301000050
:1000A0008301000083010000830100008301000040
:1000B0008301000083010000830100008301000030
:1000C00083010000830100008301000000F002F8BA
:1000D00000F03AF80AA090E8000C82448344AAF1A8
:1000E0000107DA4501D100F02FF8AFF2090EBAE8A6
:1000F0000F0013F0010F18BFFB1A43F0010318475C
:100100002807000048070000103A24BF78C878C1CB
:10011000FAD8520724BF30C830C144BF04680C600D
:10012000704700000023002400250026103A28BF55
:1001300078C1FBD8520728BF30C148BF0B60704759
:100140001FB51FBD10B510BD00F0A6F81146FFF792
:10015000F7FF00F0B0FA00F0C4F803B4FFF7F2FFC5
:1001600003BC00F05BFB00000948804709480047DA
:10017000FEE7FEE7FEE7FEE7FEE7FEE7FEE7FEE757
:10018000FEE7FEE704480549034A054B70470000B7
:10019000A9040000CD000000B0000010B002001063
:1001A000B000001053EA020C00F069802DE9F04B1A
:1001B0004FF00006002B1FBFB3FA83F503FA05F4D6
:1001C00024FA05F65E4012BF1643B2FA82F502FA2F
:1001D00005F4C5F120051EBF22FA05FC44EA0C0413
:1001E000203556EA044C4FEA144418BF641C4FF003
:1001F00000084FF00009904271EB030C39D300293D
:1002000019BFB1FA81F701FA07F6B0FA80F700FAE0
:1002100007F6C7F120071EBF20FA07FC46EA0C06C6
:100220002037B6FBF4FCA7EB0507103F07F01F0BC8
:10023000CBF120060CFA0BFB2CFA06F644BFB346B2
:100240000026202FA4BF5E464FF0000B5BEA060C91
:1002500008BF4FF0010B19EB0B09ABFB027C48EB1D
:100260000608C01B06FB02CC0BFB03CC71EB0C0198
:10027000C1E70B46024641464846BDE8F08B13B540
:100280004FF000004FF00001AFF30080BDE81C40CC
:100290007047704770477047754600F029F8AE46C2
:1002A00005006946534620F00700854618B020B582
:1002B000FFF768FFBDE820404FF000064FF0000751
:1002C0004FF000084FF0000B21F00701AC46ACE8FE
:1002D000C009ACE8C009ACE8C009ACE8C0098D466B
:1002E00070470446AFF300802046FFF736FF00005A
:1002F000004870475000001070470000FFFFFFFFEC
:100300002DE9F04781480068C0F3016003287CD1E3
:100310007F48006810F0030006D0012833D002287F
:100320005FD003282ED100E000BF78480068C0F3FA
:10033000074000F101044FF002017648D0F8880030
:10034000C0F30E0000F10100A1FB0001724B4FF061
:10035000000CA0FB037901FB039100FB0C1122466A
:1003600063463846FFF71EFF05466C480068C0B27A
:1003700000F1010422464FF000032846FFF712FF68
:10038000674908605DE061480068C0F3074000F11C
:1003900001044FF002015F48D0F88800C0F30E005E
:1003A00000F10100A1FB00105E4A4FF0000CA1FB20
:1003B000027900FB029001FB0C012246634638469D
:1003C000FFF7F0FE054655480068C0B200F1010491
:1003D00022464FF000032846FFF7E4FE504908602C
:1003E0002FE04A480068C0F3074000F101044FF0D5
:1003F00002014848D0F88800C0F30E0000F1010067
:10040000A1FB00124FF4004000E01BE04FF000039E
:10041000A1FB007902FB009001FB03012246384654
:10042000FFF7C0FE05463D480068C0B200F1010478
:1004300022464FF000032846FFF7B4FE3849086013
:1004400000BF2FE03248006810F0030006D00128FA
:1004500010D0022819D0032823D100E000BF2F4874
:100460000068C0B200F101002B49B1FBF0F02C494B
:10047000086016E029480068C0B200F1010029496F
:10048000B1FBF0F0264908600BE024480068C0B2D8
:1004900000F101004FF40041B1FBF0F02049086089
:1004A00000BF00BFBDE8F08720201F490860194841
:1004B000D0F8A00110F0200F05D000BF1A48006846
:1004C00010F0400FFAD00320144908601748114972
:1004D000C1F8A8011648174908604FF001000C49FF
:1004E00008604FF00400A1F10401086012481349AC
:1004F000086040F201100749C1F8C80108460068C9
:1005000020F4704040F480400860704788C00F407D
:100510000CC10F4000C00F4000093D0004C10F4056
:1005200000000010001BB700A0C10F4055515155ED
:1005300055545554ACC10F40DE872804C4C00F4049
:10054000002100E0491C8142FCD370474FF0F0606D
:10055000A549C8614FF00060C8614000C86170479C
:1005600010B504460B46FFF7F1FF9F48446123B9DD
:100570004FF000609C49C86103E04FF000609A4969
:1005800088614FF08050984988611920FFF7D8FFA3
:100590004FF080509449C86110BD70B504460E46B6
:1005A00004F0F005ED0431462846FFF7D9FF04F0CA
:1005B0000F05ED0531462846FFF7D2FF4FF47A705C
:1005C000FFF7BEFF70BD00B5884840688849084005
:1005D000864948608448006840F0FC5082490860C1
:1005E000FFF7B4FF4FF44860FFF7AAFF0021332064
:1005F000FFF7D3FF47F23050FFF7A2FF0021322070
:10060000FFF7CBFF47F23050FFF79AFF0021282079
:10061000FFF7C3FF47F23050FFF792FF00210C2095
:10062000FFF7BBFF4FF44870FFF78AFF0021062059
:10063000FFF7B3FF4FF44870FFF782FF002101205E
:10064000FFF7ABFF42F21070FFF77AFF00BD70B505
:10065000054600240BE02E5D01213046FFF79DFF8B
:10066000641C102C03D10021C020FFF796FF285DE9
:100670000028F0D170BD5C48406B5E4908600846B8
:10068000006800F0F06008600846006890B1012042
:100690005949087057480068C00C564908605748C7
:1006A0000068800A55490860524800780978084374
:1006B0005349087070474C48006C40F470504A49E8
:1006C00008640846006A20F0F06008620846006886
:1006D00040F0FC500860FFF739FF4FF44860FFF727
:1006E0002FFFFFF770FF00218020FFF756FF4FF428
:1006F0004870FFF725FF4348FFF7A9FF72E047E086
:1007000001204149087039E03F480078012803D1B1
:1007100080023E49086017E03B480078022803D178
:1007200080023A4908600FE037480078032804D176
:100730004FF480503549086006E0334800780428BB
:1007400002D1C00231490860304800682B49086076
:100750004FF470502449C8652C4800688865002013
:1007600025490870FFF787FF23480078012800D14A
:1007700008E025480078401C23490870224800788A
:100780000528C1DB00BF1C480078012800D100E02B
:10079000B6E700BF00201E49086013E01D481C4951
:1007A0000968405C16490978884206D11A481849F8
:1007B0000968405C1249087008E015480068401C50
:1007C00013490860124800681028E7D300BF0021D1
:1007D000C020FFF7E2FE4FF44870FFF7B1FE084873
:1007E000FFF735FF8BE7000000C0092000C0024082
:1007F000FF3F00FC4C0000103300001040000010D0
:100800003400001004000010310000103C00001003
:1008100038000010110000102100001001491820BC
:10082000ABBEFEE7260002004808000000000010F2
:10083000500000000801000098080000500000105F
:100840006002000024010000C0C62D004B45592065
:10085000505245535345443D0011214181122242DB
:100860008214244484182848883031323334353691
:10087000373839414243444546000000000000003B
:100880000000000000000000000000000000000068
:08089000000000000000000060
:04000005000000CD2A
:00000001FF
