:020000040000FA
:10000000C0020010690100007101000073010000CE
:100010007501000077010000790100000000000078
:100020000000000000000000000000007B01000054
:100030007D010000000000007F0100008101000040
:1000400083010000830100008301000083010000A0
:100050008301000083010000830100008301000090
:100060008301000083010000830100008301000080
:100070008301000083010000830100008301000070
:100080008301000083010000830100008301000060
:100090008301000083010000830100008301000050
:1000A0008301000083010000830100008301000040
:1000B0008301000083010000830100008301000030
:1000C00083010000830100008301000000F002F8BA
:1000D00000F03AF80AA090E8000C82448344AAF1A8
:1000E0000107DA4501D100F02FF8AFF2090EBAE8A6
:1000F0000F0013F0010F18BFFB1A43F0010318475C
:100100002408000044080000103A24BF78C878C1D1
:10011000FAD8520724BF30C830C144BF04680C600D
:10012000704700000023002400250026103A28BF55
:1001300078C1FBD8520728BF30C148BF0B60704759
:100140001FB51FBD10B510BD00F0A6F81146FFF792
:10015000F7FF00F0B0FA00F0C4F803B4FFF7F2FFC5
:1001600003BC00F0D9FB000009488047094800475C
:10017000FEE7FEE7FEE7FEE7FEE7FEE7FEE7FEE757
:10018000FEE7FEE704480549034A054B70470000B7
:10019000A9040000CD000000C0000010C002001043
:1001A000C000001053EA020C00F069802DE9F04B0A
:1001B0004FF00006002B1FBFB3FA83F503FA05F4D6
:1001C00024FA05F65E4012BF1643B2FA82F502FA2F
:1001D00005F4C5F120051EBF22FA05FC44EA0C0413
:1001E000203556EA044C4FEA144418BF641C4FF003
:1001F00000084FF00009904271EB030C39D300293D
:1002000019BFB1FA81F701FA07F6B0FA80F700FAE0
:1002100007F6C7F120071EBF20FA07FC46EA0C06C6
:100220002037B6FBF4FCA7EB0507103F07F01F0BC8
:10023000CBF120060CFA0BFB2CFA06F644BFB346B2
:100240000026202FA4BF5E464FF0000B5BEA060C91
:1002500008BF4FF0010B19EB0B09ABFB027C48EB1D
:100260000608C01B06FB02CC0BFB03CC71EB0C0198
:10027000C1E70B46024641464846BDE8F08B13B540
:100280004FF000004FF00001AFF30080BDE81C40CC
:100290007047704770477047754600F029F8AE46C2
:1002A00005006946534620F00700854618B020B582
:1002B000FFF768FFBDE820404FF000064FF0000751
:1002C0004FF000084FF0000B21F00701AC46ACE8FE
:1002D000C009ACE8C009ACE8C009ACE8C0098D466B
:1002E00070470446AFF300802046FFF736FF00005A
:1002F000004870475C00001070470000FFFFFFFFE0
:100300002DE9F04781480068C0F3016003287CD1E3
:100310007F48006810F0030006D0012833D002287F
:100320005FD003282ED100E000BF78480068C0F3FA
:10033000074000F101044FF002017648D0F8880030
:10034000C0F30E0000F10100A1FB0001724B4FF061
:10035000000CA0FB037901FB039100FB0C1122466A
:1003600063463846FFF71EFF05466C480068C0B27A
:1003700000F1010422464FF000032846FFF712FF68
:10038000674908605DE061480068C0F3074000F11C
:1003900001044FF002015F48D0F88800C0F30E005E
:1003A00000F10100A1FB00105E4A4FF0000CA1FB20
:1003B000027900FB029001FB0C012246634638469D
:1003C000FFF7F0FE054655480068C0B200F1010491
:1003D00022464FF000032846FFF7E4FE504908602C
:1003E0002FE04A480068C0F3074000F101044FF0D5
:1003F00002014848D0F88800C0F30E0000F1010067
:10040000A1FB00124FF4004000E01BE04FF000039E
:10041000A1FB007902FB009001FB03012246384654
:10042000FFF7C0FE05463D480068C0B200F1010478
:1004300022464FF000032846FFF7B4FE3849086013
:1004400000BF2FE03248006810F0030006D00128FA
:1004500010D0022819D0032823D100E000BF2F4874
:100460000068C0B200F101002B49B1FBF0F02C494B
:10047000086016E029480068C0B200F1010029496F
:10048000B1FBF0F0264908600BE024480068C0B2D8
:1004900000F101004FF40041B1FBF0F02049086089
:1004A00000BF00BFBDE8F08720201F490860194841
:1004B000D0F8A00110F0200F05D000BF1A48006846
:1004C00010F0400FFAD00320144908601748114972
:1004D000C1F8A8011648174908604FF001000C49FF
:1004E00008604FF00400A1F10401086012481349AC
:1004F000086040F201100749C1F8C80108460068C9
:1005000020F4704040F480400860704788C00F407D
:100510000CC10F4000C00F4000093D0004C10F4056
:1005200000000010001BB700A0C10F4055515155ED
:1005300055545554ACC10F40DE872804C4C00F4049
:10054000002100E0491C8142FCD370474FF0F0606D
:10055000DB49C8614FF00060C8614000C861704766
:1005600010B504460B46FFF7F1FFD548446123B9A7
:100570004FF00060D249C86103E04FF00060D049FD
:1005800088614FF08050CE4988611920FFF7D8FF6D
:100590004FF08050CA49C86110BD70B504460E4680
:1005A00004F0F005ED0431462846FFF7D9FF04F0CA
:1005B0000F05ED0531462846FFF7D2FF4FF47A705C
:1005C000FFF7BEFF70BD00B5BE484068BE49084099
:1005D000BC494860BA48006840F0FC50B84908601F
:1005E000FFF7B4FF4FF44860FFF7AAFF0021332064
:1005F000FFF7D3FF47F23050FFF7A2FF0021322070
:10060000FFF7CBFF47F23050FFF79AFF0021282079
:10061000FFF7C3FF47F23050FFF792FF00210C2095
:10062000FFF7BBFF4FF44870FFF78AFF0021062059
:10063000FFF7B3FF4FF44870FFF782FF002101205E
:10064000FFF7ABFF42F21070FFF77AFF00BD70B505
:10065000054600240BE02E5D01213046FFF79DFF8B
:10066000641C102C03D10021C020FFF796FF285DE9
:100670000028F0D170BD9248406B9449086008464C
:10068000006800F0F06008600846006890B1012042
:100690008F4908708D480068C00C8C4908608D48EF
:1006A0000068800A8B490860884800780978084308
:1006B00089490870704700B54FF47050804908644C
:1006C0006FF0F0600862FFF77EFF802083490860CA
:1006D000002182480068FFF760FF8148FFF730FF84
:1006E0008EE04CE001207F4908703EE07D480078B4
:1006F000012803D180027C49086017E0794800781E
:10070000022803D18002784908600FE0754800781C
:10071000032804D14FF480507349086006E0714803
:100720000078042802D1C0026F4908606E48006852
:10073000684908604FF470506149C8656A480068AC
:100740008865002062490870FFF795FF60480078CF
:10075000012805D165480068401C6449086008E02C
:1007600060480078401C5F4908705E4800780528A2
:10077000BCDB00BF56480078012800D100E0B1E79B
:1007800000BF00205A49086035E05A4858490968B6
:10079000405C51490978884228D157485449096832
:1007A000405C4D4908700846FFF751FF5348FFF77A
:1007B000C7FE4E480068012805D147480078303808
:1007C0004F49086011E049480068022804D14248B6
:1007D00000784C49087008E044480068032804D1B8
:1007E0003D48007830384849086008E040480068D3
:1007F000401C3F4908603E4800681028C5D300BF30
:100800003A4800680328FFF66CAFC02033490860FF
:10081000002132480068FFF7C0FE4FF44870FFF730
:100820008FFE384800782A2816D02B2804D02D288F
:100830000AD02F2821D117E03148006832490968D1
:1008400008443249086018E02D4800682E490968BC
:10085000401A2E49086010E0294800682A490968B2
:1008600048432A49086008E0254800682649096885
:1008700090FBF1F02549086000BF00BF17E0234856
:1008800000680A2190FBF1F201FB12003030C1B286
:100890001F4802680068401E1D4B18601D488154A7
:1008A0001A4800680A2190FBF1F0184908601748BF
:1008B00000680028E3D11748FFF7C9FE002000BDFB
:1008C00000C0092000C00240FF3F00FC540000109F
:1008D000410000104C000010420000100400001005
:1008E0008038010040000010480000103C0000105B
:1008F000440000100800001018000010A08601003D
:100900003400001058000010380000102C000010B7
:10091000280000103000001001491820ABBEFEE78F
:100920002600020044090000000000105C000000E6
:1009300008010000A00900005C0000106402000033
:1009400024010000C0C62D000000000011214181DB
:1009500012224282142444841828488830313233C9
:1009600034353637383941422B2D2A2F010000000B
:100970000000000030300000000000000000000017
:100980000000000000000000000000000000000067
:100990000000000000000000000000000000000057
:04000005000000CD2A
:00000001FF
