:020000040000FA
:10000000A0020010690100007101000073010000EE
:100010007501000077010000790100000000000078
:100020000000000000000000000000007B01000054
:100030007D010000000000007F0100008101000040
:1000400083010000830100008301000083010000A0
:100050008301000083010000830100008301000090
:100060008301000083010000830100008301000080
:100070008301000083010000830100008301000070
:100080008301000083010000830100008301000060
:100090008301000083010000770600008301000057
:1000A0008301000083010000830100008301000040
:1000B0008301000083010000830100008301000030
:1000C00083010000830100008301000000F002F8BA
:1000D00000F03AF80AA090E8000C82448344AAF1A8
:1000E0000107DA4501D100F02FF8AFF2090EBAE8A6
:1000F0000F0013F0010F18BFFB1A43F0010318475C
:100100003811000058110000103A24BF78C878C197
:10011000FAD8520724BF30C830C144BF04680C600D
:10012000704700000023002400250026103A28BF55
:1001300078C1FBD8520728BF30C148BF0B60704759
:100140001FB51FBD10B510BD00F0A6F81146FFF792
:10015000F7FF00F0FAFA00F0C4F803B4FFF7F2FF7B
:1001600003BC00F043FB00000948804709480047F2
:10017000FEE7FEE7FEE7FEE7FEE7FEE7FEE7FEE757
:10018000FEE7FEE704480549034A054B70470000B7
:10019000A9040000CD000000A0000010A002001083
:1001A000A000001053EA020C00F069802DE9F04B2A
:1001B0004FF00006002B1FBFB3FA83F503FA05F4D6
:1001C00024FA05F65E4012BF1643B2FA82F502FA2F
:1001D00005F4C5F120051EBF22FA05FC44EA0C0413
:1001E000203556EA044C4FEA144418BF641C4FF003
:1001F00000084FF00009904271EB030C39D300293D
:1002000019BFB1FA81F701FA07F6B0FA80F700FAE0
:1002100007F6C7F120071EBF20FA07FC46EA0C06C6
:100220002037B6FBF4FCA7EB0507103F07F01F0BC8
:10023000CBF120060CFA0BFB2CFA06F644BFB346B2
:100240000026202FA4BF5E464FF0000B5BEA060C91
:1002500008BF4FF0010B19EB0B09ABFB027C48EB1D
:100260000608C01B06FB02CC0BFB03CC71EB0C0198
:10027000C1E70B46024641464846BDE8F08B13B540
:100280004FF000004FF00001AFF30080BDE81C40CC
:100290007047704770477047754600F029F8AE46C2
:1002A00005006946534620F00700854618B020B582
:1002B000FFF768FFBDE820404FF000064FF0000751
:1002C0004FF000084FF0000B21F00701AC46ACE8FE
:1002D000C009ACE8C009ACE8C009ACE8C0098D466B
:1002E00070470446AFF300802046FFF736FF00005A
:1002F000004870474000001070470000FFFFFFFFFC
:100300002DE9F04781480068C0F3016003287CD1E3
:100310007F48006810F0030006D0012833D002287F
:100320005FD003282ED100E000BF78480068C0F3FA
:10033000074000F101044FF002017648D0F8880030
:10034000C0F30E0000F10100A1FB0001724B4FF061
:10035000000CA0FB037901FB039100FB0C1122466A
:1003600063463846FFF71EFF05466C480068C0B27A
:1003700000F1010422464FF000032846FFF712FF68
:10038000674908605DE061480068C0F3074000F11C
:1003900001044FF002015F48D0F88800C0F30E005E
:1003A00000F10100A1FB00105E4A4FF0000CA1FB20
:1003B000027900FB029001FB0C012246634638469D
:1003C000FFF7F0FE054655480068C0B200F1010491
:1003D00022464FF000032846FFF7E4FE504908602C
:1003E0002FE04A480068C0F3074000F101044FF0D5
:1003F00002014848D0F88800C0F30E0000F1010067
:10040000A1FB00124FF4004000E01BE04FF000039E
:10041000A1FB007902FB009001FB03012246384654
:10042000FFF7C0FE05463D480068C0B200F1010478
:1004300022464FF000032846FFF7B4FE3849086013
:1004400000BF2FE03248006810F0030006D00128FA
:1004500010D0022819D0032823D100E000BF2F4874
:100460000068C0B200F101002B49B1FBF0F02C494B
:10047000086016E029480068C0B200F1010029496F
:10048000B1FBF0F0264908600BE024480068C0B2D8
:1004900000F101004FF40041B1FBF0F02049086089
:1004A00000BF00BFBDE8F08720201F490860194841
:1004B000D0F8A00110F0200F05D000BF1A48006846
:1004C00010F0400FFAD00320144908601748114972
:1004D000C1F8A8011648174908604FF001000C49FF
:1004E00008604FF00400A1F10401086012481349AC
:1004F000086040F201100749C1F8C80108460068C9
:1005000020F4704040F480400860704788C00F407D
:100510000CC10F4000C00F4000093D0004C10F4056
:1005200000000010001BB700A0C10F4055515155ED
:1005300055545554ACC10F40DE872804C4C00F4049
:10054000002100E0491C8142FCD370474FF0F0606D
:100550009649C8614FF00060C8614000C8617047AB
:1005600010B504460B46FFF7F1FF9048446123B9EC
:100570004FF000608D49C86103E04FF000608B4987
:1005800088614FF08050894988611920FFF7D8FFB2
:100590004FF080508549C86110BD70B504460E46C5
:1005A00004F0F005ED0431462846FFF7D9FF04F0CA
:1005B0000F05ED0531462846FFF7D2FF4FF47A705C
:1005C000FFF7BEFF70BD00B5794840687949084023
:1005D000774948607548006840F0FC5073490860EE
:1005E000FFF7B4FF4FF44860FFF7AAFF0021332064
:1005F000FFF7D3FF47F23050FFF7A2FF0021322070
:10060000FFF7CBFF47F23050FFF79AFF0021282079
:10061000FFF7C3FF47F23050FFF792FF00210C2095
:10062000FFF7BBFF4FF44870FFF78AFF0021062059
:10063000FFF7B3FF4FF44870FFF782FF002101205E
:10064000FFF7ABFF42F21070FFF77AFF00BD70B505
:10065000054600240BE02E5D01213046FFF79DFF8B
:10066000641C102C03D10021C020FFF796FF285DE9
:100670000028F0D170BD2DE9F05F4F48006B00F00D
:1006800030004E4908600846007800F01000096804
:10069000884206D14848006AC0F30B004849086008
:1006A00005E04548406AC0F30B00464908604448ED
:1006B000006800F048FB82464FF06632424B00F083
:1006C00091FB80460022414B00F0B8F9064600F04D
:1006D00093F8044600F00AFB39490860394800687D
:1006E00000F031FB06464FF06632374B00F07AFBE4
:1006F00004460022354B00F0A1F9804600F07CF85A
:10070000824600F0F3FA2F4908602D4909682D4A06
:100710001268881A01D4014600E041422C4A116057
:100720002C4811460968405C2B490870002048702D
:100730000021C020FFF731FF4FF44870FFF700FFA2
:100740002548FFF784FFBDE8F09FFFF73CFF4FF01F
:1007500070401749C8602148006840F48050204923
:10076000C1F8C4001F48144908604FF03000C86049
:100770004FF001001C4908604FF000014FF080006D
:10078000FFF70BFF4FF44870FFF7DAFE1248FFF750
:100790005EFF16200121814042094FF0E02303EB68
:1007A0008202C2F8001100BF00BFFEE700C00920AE
:1007B00000C00240FF3F00FC004003402400001046
:1007C000100000101400001066660A400000B040DF
:1007D000300000100400001018000010C4C00F40CA
:1007E00000C00F40300021003C00001001491820DB
:1007F000ABBEFEE7260002002DE9F041C1F30A522C
:10080000A2F2FF362F4A304B0D460446142E2FDA43
:10081000002E12DA00F05EF80022134600F0E0FB32
:100820004CD2002DBCBF4FF00045002446DB55EAFA
:10083000040018BF254D19D140E0DFF894C02CFA10
:1008400006F705EA070C5CEA040C08BFBDE8F08176
:1008500000F040F80022134600F0C2FB2ED2002D1B
:1008600003DD4FF48010F0400544BD43002425E033
:10087000332EC8BFBDE8F081A6F1140C4FF0FF374E
:1008800027FA0CF73C4208BFBDE8F08100F0DEFB20
:100890000022134600F0A4FB10D2002D0DDD142E13
:1008A00008BF6D1C09D0C6F13400012101FA00F027
:1008B0002044A04238BF6D1C0446BC432946204654
:1008C000BDE8F0819C7500883CE4377E0000F03F75
:1008D000FFFF0F0010B591EA030F48BF83F00043FC
:1008E00000F1C883841A71EB030C05D2121943EB93
:1008F0000C03001B61EB0C01DFF824E14FEA1154FB
:10090000A4EB135C1EEA430F18BF9EEA445F73D04A
:1009100023EA0E03DCF1200E21EA045143F4801394
:1009200032D322FA0CFE10EB0E0023FA0CFE41EB40
:100930000E01CCF1200E03FA0EFE10EB0E0051F169
:100940000001B1F5801FCCF1200E32D201EB045131
:1009500012FA0EF2BDE8104058BF7047401C38BF75
:100960005FEA420218BF7047002814BF20F0010060
:1009700041F100014FEA410313F5001F38BF7047F2
:10098000A1F1C04100F026BB012A43EB0302ACF108
:10099000200CDCF11F0E32BF4FF0000E23FA0CF3D7
:1009A00010EB030041EB0451B4EB115FD0D0A1EB8D
:1009B000045101F5801149085FEA300001EB045150
:1009C0000ED350F1000038BF12FA0EFE08D1BDE878
:1009D0001040C9E7401C38BF5FEA4202CAD1C3E7F2
:1009E000BDE810404FEA410313F5001F38BF7047C0
:1009F000A1F1C04100F0EEBA9EEA445F08D011EACE
:100A00005E0FBDE8104004BF01F0004100207047B8
:100A1000BDE8104070B500F08FFA00BF64FBBE3E29
:100A20000000E0FF491058BFC1F140415B1058BFC2
:100A3000C3F140438B42EFF3008070472DE9C04182
:100A400030B4DFF8A0C23CEA111418BF3CEA13141A
:100A500000F0EC8081EA03051CEA111444EAD57425
:100A600018BF1CEA131500F0C780A4EB05044FF073
:100A7000004545EAC12145EAC32341EA505143EA12
:100A8000525304F17F74994204F500344FEAC020B8
:100A90004FEAC22208BF904200F09C804FEA1365E3
:100AA0000FF24016765D4FEA134506FB05F7C7F1D6
:100AB000807706FB07F74FEAD737A7FB0368764234
:100AC000C8F58038A7FB06CE38BFA8F1010807FBA0
:100AD00008E64FF0000EA6FB028CE6FB03CEDCF12D
:100AE000000CCEF1004E38BFAEF1010EA6FB0C5843
:100AF0004FF000074FF00005E6FB0E87A1FB08C68C
:100B0000A0FB07CE16EB0E0645F10005E1FB0765DD
:100B100015F1E04E7EBFA4F580345FEA46066D41D4
:100B200016F1800745F100054FEA17274FEA0666E0
:100B300047EA0567A6F1DE46B6F1805F4FEA152564
:100B40001FD9384624F0010C05EBC471BCF1FE6FCF
:100B500001EB0C1102D8F0BCBDE8008124425CBF5F
:100B600001F5801E9EEAC47F02D4F0BCBDE800817E
:100B7000244238D4F0BCA1F1C041BDE8004100F0EE
:100B800029BA4FEAD22242EA43524FEAD323A7FBC3
:100B900002864FEAD02040EA415007FB03661EEA76
:100BA0000E0F4FEAD12105FB026658BFA6EB005697
:100BB000B6EB00564FEA520E4EEAC37E18EB0E0E0D
:100BC00056EB530EBDD518EB02085E417F1C55F164
:100BD0000005B6E74FF480154FF000074FF0000610
:100BE0004FF00008ADE7F0BC4FF0000001F1C0414C
:100BF00001F00041BDE8008111EA0C1F0CEA131559
:100C000000D00CE013EA0C1F00F025804FF000002C
:100C1000F0BC81EA030101F00041BDE80081F0BCB5
:100C2000BDE8004181EA030100F0D4B9F0BCBDE8A1
:100C3000004170B500F080F9097EFC3E00F007B875
:100C400081EA03014FF0000001F00041704781EAA2
:100C5000030100F0BFB9F0BCBDE800414FF0000057
:100C600021497047FFFDFBF9F7F5F4F2F0EEEDEBEB
:100C7000E9E8E6E4E3E1E0DEDDDBDAD8D7D5D4D39A
:100C8000D1D0CFCDCCCBCAC8C7C6C5C4C2C1C0BFE6
:100C9000BEBDBCBBBAB9B8B7B6B5B4B3B2B1B0AFEC
:100CA000AEADACABAAA9A8A8A7A6A5A4A3A3A2A1D0
:100CB000A09F9F9E9D9C9C9B9A999998979796958B
:100CC00095949393929191908F8F8E8E8D8C8C8B27
:100CD0008B8A8989888887878685858484838382AF
:100CE000828181800000FF070000F87F4FEA1153E6
:100CF000A3F58063D3F11E03A8BFD3F1200C08DB5A
:100D00004FF0004242EAC12252EA505232FA03F056
:100D1000704709420BD4102BC4BF0020704703F565
:100D2000787CBCF1FF3F05D04FF0FF3070474FF0AB
:100D30000000704770B500F0FFF800BF49922480B2
:100D400000207047F0E7B0FA80F310FA03F10AD000
:100D5000C3F11D0303F580634FEA41504FEA03528C
:100D600002EBD12170474FF00000704751EA030CAD
:100D700017D41CF5801F58BFBCF5801F00F10680FA
:100D8000994218BF704708BF9042704707D711F5C6
:100D9000801F58BF13F5801F19D4994270478942AC
:100DA00070471CF5801F08D5BCF5801FF7D58B4216
:100DB00018BF704708BF824270474FF4001C1CEBFD
:100DC000410F38BF1CEB430F01D28B42704770B507
:100DD00000F0B2F8922449004FF000514FF08053D8
:100DE000FFF720BEDFF848C170B51CEA111E1EBF18
:100DF0001CEA13159EEA0C0F95EA0C0F00F06F80A9
:100E000081EA030423EA4C134EEAD47E21EA4C1112
:100E100041F4801143F48013AE44A1FB024CA0FBCB
:100E20000365AEF17F7E361955EB0C05A1FB034C33
:100E30004CF10003A0FB021C16EB0C06654153F1BC
:100E40000003094218BF46F0010613F4007F0BD1DE
:100E50004FEA03314FEA0530340341EA155140EAC5
:100E600016506FF003020AE04FEAC3214FEAC52093
:100E7000F40241EA555140EA56506FF0020202EB8B
:100E80002E4201EB025585EACE710AD05FEA440C8E
:100E900018BF24F0004450F1000041F1000120EAA5
:100EA000D47040F2FE7C624500D270BDA84214BFEF
:100EB0004FF080444FF04044002E08BF0024BEF1A4
:100EC000806FA8BFA1F1C041BDE8704080F2828070
:100ED0004FF0000001F1C04101F0004170479EEA6F
:100EE0000C0F0CEA131518BF95EA0C0F06D04FF043
:100EF000000081EA030E0EF0004170BD00F01CF806
:100F00008900013E00F007B800F009B84FEA430C31
:100F10005FEA5C5C08D081EA030100F05BB84FEA4D
:100F2000410C5FEA5C5CF6D14FF00000014970476C
:100F30000000FF070000F87F0EF1020E2EF0030EF6
:100F40005EF8046B364205D4012A43EB030515F520
:100F5000001F12D8012841EB010C1CF5001F0CD812
:100F60000ED14FEAD17C15F5001F0CEB4C0C0CF1A7
:100F7000020C08BF4CEBD37C04E04FF0080C01E0FE
:100F80004FEAD37C0CEB4C0526FA05F606F0070673
:100F9000B6F1040C06D20EEB860CBDE870404CF0A6
:100FA000010C6047DFE80CF0090B02024FF0004132
:100FB0004FF00000A1F5002170BD19461046012830
:100FC00051EB010418BFD4F5001484BF002001F0D8
:100FD000004170BD0808A0F500114FEA31017047CB
:100FE00053EA010C17D41CF5801F58BFBCF5801FB5
:100FF00000F106808B4218BF704708BF82427047DD
:1010000007D713F5801F58BF11F5801F19D48B42E5
:1010100070479B4270471CF5801F08D5BCF5801FA8
:10102000F7D5994218BF704708BF904270474FF4F8
:10103000001C1CEB430F38BF1CEB410F01D299423F
:1010400070470FB40CBC03BCFFF7C1BE91EA030F9D
:1010500010B581F000413FF545AC83F0004300F04E
:1010600009B8000010B591EA030F48BF83F00043B0
:101070003FF538AC841A71EB030C07D212198CF0CF
:10108000004C43EB0C03001B61EB0C01DFF8A4E107
:101090004FEA1154A4EB135C1EEA430F18BF9EEAFB
:1010A000445F00F0B08023EA6E03524221EA04510B
:1010B000C3EB6E0338BF5B1EDCF1200E25D322FA92
:1010C0000CFE10EB0E0043FA0CFE41EB0E01CCF1CE
:1010D000200E03FA0EFE10EB0E0051F10001CCF1D0
:1010E000200E29D412FA0EF201EB0451BDE8104093
:1010F00058BF7047401C1CBFB2F1004F704700281A
:101100000CBF491C20F00100704712EB020E43EBAC
:10111000030218BF4FF0010E4EEA4202ACF1200C60
:10112000DCF11E0E54D943FA0CFE10EB0E0051F107
:10113000FF31CCF11E0ED5D50EF1010E12FA0EFEC6
:10114000404141EB010101EB445C5FEA5C5C10D97A
:1011500010EBDE7001EB045138BFBEF1004FBDE86B
:10116000104018BF704700280CBF491C20F0010038
:10117000704730D24FEAD42C11F5001124F40064EA
:101180001BD0B1FA81F20B3AA41AA41ED2F12003AB
:10119000914030FA03F31943904001EBCC71002CDD
:1011A00001EB0451BDE81040A8BF704701F1C041F8
:1011B0004FF0000001F000417047B0FA80F310FAE0
:1011C00003F100D110BDE41A173C4805C90AE4E751
:1011D00001EB045110BD491001EB0451BDE8104072
:1011E0004FEA300002E04FF0000170474A0008BFAC
:1011F0000042F8D0B2F5001F28BF704701F000414F
:101200004FF0000070479EEA445F07D011EA5E0F7E
:10121000BDE8104004BF002100207047BDE8104029
:1012200070B5FFF789FE00BF40DFF63E83F0004156
:10123000104670470000E0FF581200000000001048
:10124000400000000801000098120000400000105B
:101250006002000024010000C0C62D00303132338E
:101260003435363738390000000000000000000037
:101270004144432076616C75650000000000000069
:10128000000000000000000000000000000000005E
:08129000000000000000000056
:04000005000000CD2A
:00000001FF
