:020000040000FA
:1000000068020010890100009101000093010000C6
:100010009501000097010000990100000000000018
:100020000000000000000000000000009B01000034
:100030009D010000000000009F010000A1010000E0
:10004000A3010000A3010000A3010000A301000020
:10005000A3010000A3010000A3010000A301000010
:10006000A3010000A3010000A3010000A301000000
:10007000A3010000A3010000A3010000A3010000F0
:10008000A3010000A3010000A3010000A3010000E0
:10009000A3010000A3010000A3010000A3010000D0
:1000A000A3010000A3010000A3010000A3010000C0
:1000B000A3010000A3010000A3010000A3010000B0
:1000C000A3010000A3010000A301000000F002F85A
:1000D00000F04AF80AA090E8000C82448344AAF198
:1000E0000107DA4501D100F03FF8AFF2090EBAE896
:1000F0000F0013F0010F18BFFB1A43F0010318475C
:10010000CC1C0000EC1C0000103A24BF78C878C159
:10011000FAD8520724BF30C830C144BF04680C600D
:10012000704700000023002400250026103A28BF55
:1001300078C1FBD8520728BF30C148BF0B60704759
:10014000662901F0E385782900F07A830020704762
:100150001FB500F0CBF804000020002101F0ECFBFB
:10016000E0601FBD10B510BD00F09CFF1146FFF709
:10017000EFFF00F080FA00F0BAFF03B4FFF7F2FFE0
:1001800003BC00F0FBFF0000094880470948004716
:10019000FEE7FEE7FEE7FEE7FEE7FEE7FEE7FEE737
:1001A000FEE7FEE704480549034A054B7047000097
:1001B000A9040000CD0000006800001068020010D3
:1001C0006800001053EA020C00F069802DE9F04B42
:1001D0004FF00006002B1FBFB3FA83F503FA05F4B6
:1001E00024FA05F65E4012BF1643B2FA82F502FA0F
:1001F00005F4C5F120051EBF22FA05FC44EA0C04F3
:10020000203556EA044C4FEA144418BF641C4FF0E2
:1002100000084FF00009904271EB030C39D300291C
:1002200019BFB1FA81F701FA07F6B0FA80F700FAC0
:1002300007F6C7F120071EBF20FA07FC46EA0C06A6
:100240002037B6FBF4FCA7EB0507103F07F01F0BA8
:10025000CBF120060CFA0BFB2CFA06F644BFB34692
:100260000026202FA4BF5E464FF0000B5BEA060C71
:1002700008BF4FF0010B19EB0B09ABFB027C48EBFD
:100280000608C01B06FB02CC0BFB03CC71EB0C0178
:10029000C1E70B46024641464846BDE8F08B13B520
:1002A0004FF000004FF00001AFF30080BDE81C40AC
:1002B000704700000FB41CB5074B06AA7B44694683
:1002C0000090059800F0E3FD0020694600F009F871
:1002D0001CBC5DF814FB0000230000007047704751
:1002E00070470A6802F8010B0A60704700487047BF
:1002F000240000100048704704000010FFFFFFFFBB
:100300002DE9F04781480068C0F3016003287CD1E3
:100310007F48006810F0030006D0012833D002287F
:100320005FD003282ED100E000BF78480068C0F3FA
:10033000074000F101044FF002017648D0F8880030
:10034000C0F30E0000F10100A1FB0001724B4FF061
:10035000000CA0FB037901FB039100FB0C1122466A
:1003600063463846FFF72EFF05466C480068C0B26A
:1003700000F1010422464FF000032846FFF722FF58
:10038000674908605DE061480068C0F3074000F11C
:1003900001044FF002015F48D0F88800C0F30E005E
:1003A00000F10100A1FB00105E4A4FF0000CA1FB20
:1003B000027900FB029001FB0C012246634638469D
:1003C000FFF700FF054655480068C0B200F1010480
:1003D00022464FF000032846FFF7F4FE504908601C
:1003E0002FE04A480068C0F3074000F101044FF0D5
:1003F00002014848D0F88800C0F30E0000F1010067
:10040000A1FB00124FF4004000E01BE04FF000039E
:10041000A1FB007902FB009001FB03012246384654
:10042000FFF7D0FE05463D480068C0B200F1010468
:1004300022464FF000032846FFF7C4FE3849086003
:1004400000BF2FE03248006810F0030006D00128FA
:1004500010D0022819D0032823D100E000BF2F4874
:100460000068C0B200F101002B49B1FBF0F02C494B
:10047000086016E029480068C0B200F1010029496F
:10048000B1FBF0F0264908600BE024480068C0B2D8
:1004900000F101004FF40041B1FBF0F02049086089
:1004A00000BF00BFBDE8F08720201F490860194841
:1004B000D0F8A00110F0200F05D000BF1A48006846
:1004C00010F0400FFAD00320144908601748114972
:1004D000C1F8A8011648174908604FF001000C49FF
:1004E00008604FF00400A1F10401086012481349AC
:1004F000086040F201100749C1F8C80108460068C9
:1005000020F4704040F480400860704788C00F407D
:100510000CC10F4000C00F4000093D0004C10F4056
:1005200000000010001BB700A0C10F4055515155ED
:1005300055545554ACC10F40DE872804C4C00F4049
:10054000002100E0491C8142FCD370474FF0F0606D
:100550009349C8614FF00060C8614000C8617047AE
:1005600010B504460B46FFF7F1FF8D48446123B9EF
:100570004FF000608A49C86103E04FF0006088498D
:1005800088614FF08050864988611920FFF7D8FFB5
:100590004FF080508249C86110BD70B504460E46C8
:1005A00004F0F005ED0431462846FFF7D9FF04F0CA
:1005B0000F05ED0531462846FFF7D2FF4FF47A705C
:1005C000FFF7BEFF70BD00B5764840687649084029
:1005D000744948607248006840F0FC5070490860F7
:1005E000FFF7B4FF4FF44860FFF7AAFF0021332064
:1005F000FFF7D3FF47F23050FFF7A2FF0021322070
:10060000FFF7CBFF47F23050FFF79AFF0021282079
:10061000FFF7C3FF47F23050FFF792FF00210C2095
:10062000FFF7BBFF4FF44870FFF78AFF0021062059
:10063000FFF7B3FF4FF44870FFF782FF002101205E
:10064000FFF7ABFF42F21070FFF77AFF00BD70B505
:10065000054600240BE02E5D01213046FFF79DFF8B
:10066000641C102C03D10021C020FFF796FF285DE9
:100670000028F0D170BD8AB04CA207CA03AB07C3F3
:100680004DA207CA8DE80700FFF70EFFFFF738FEFF
:100690004C48006840F400404B49C1F8C400FFF7E3
:1006A00092FF4048C06840F040403E49C86046481C
:1006B000D0F8C40040F480504349C1F8C400FFF7AB
:1006C0001FFE00218020FFF768FF4FF44870FFF7FE
:1006D00037FF03A8FFF7BBFF0021C020FFF75DFF36
:1006E0004FF44870FFF72CFF6846FFF7B0FF56E065
:1006F00036483749086000BF3548406A10F0004F5F
:10070000FAD03348456A2D09C5F30B05284601F098
:100710001DFA07462F4901F02DFA06462E4901F031
:1007200053F98046404601F023F9064632460B460F
:100730002AA108A8FFF7BEFD2A462AA106A8FFF7AE
:10074000B9FD002400E0641CB4F5FA6FFBD300216E
:100750008920FFF722FF4FF44870FFF7F1FE08A849
:10076000FFF775FF0021C820FFF717FF4FF448700F
:10077000FFF7E6FE06A8FFF76AFF002400E0641C0E
:1007800019488442FBD3002405E0002006A908553F
:1007900008A90855641C072CF7D30025A846A7E72D
:1007A00000C0092000C00240FF3F00FC414E414C08
:1007B0004F472049503A0000414443204F55545080
:1007C00055543A00C4C00F4000C00F402000200123
:1007D000004003403333534000F07F4525332E3231
:1007E0006656000025780000400D030070B50446F1
:1007F00085690068C10601D5302600E02026C007C3
:1008000008D070BDD4E9012130469047206A00F13C
:10081000010020626D1EF5D570BD70B50446856976
:100820000078C00708D170BDD4E90121202090478D
:10083000206A00F1010020626D1EF5D570BD000038
:1008400070B504460D4621461068AFF3008021883C
:10085000090502D5104A7A4402E00F4A7A440E3262
:10086000002104F1240307E000F00F064FEA101006
:10087000965D5E5401F101010028F5D10346207810
:10088000000704D5702D02D009B111320223204691
:10089000BDE8704000F089B8B61400002DE9F047BB
:1008A0004FF0000A89460446C0F820A02046E168BF
:1008B0008847002876D0252806D0D4E90121904722
:1008C000206A401C2062F1E7E16820460025884745
:1008D000C4F81CA006460027C4F818A02A2E09D088
:1008E000304601F021F838B304EB8708303EC8F8F1
:1008F000186019E059F8041B204604EB8702916147
:10090000E1688847012F064618D1E069002820DAFF
:1009100025F020051DE0D8F8180000EB800006EB5C
:1009200040003038C8F818002046E168884706467D
:1009300000F0FAFF0028EED1012F0AD02E2E08D1A8
:100940002046E16888477F1C0646022F45F02005B7
:10095000C4DBA069002803DA404245F00105A0612C
:10096000E80701D025F01005B6B1A6F1410019281D
:1009700002D8203645F400654A46314620462560B7
:100980004D46FFF7DDFB58B1012806D0ED1D25F0DF
:10099000070000F1080989E704E005F1040985E78B
:1009A00030468AE7206ABDE8F0872DE9F0470D461A
:1009B00099469246044600F124080168880604D549
:1009C000E06921F01001216000E00120A84202DD71
:1009D000A0EB050700E00027A16907EB050202EB89
:1009E0000900A1EB0000A0612078C00602D42046D7
:1009F000FFF7FCFE002608E0D4E901211AF8060002
:100A00009047206A401C761C20624E45F4DB20781B
:100A1000C0060AD52046FFF7E9FE06E0D4E9012129
:100A200030209047206A401C2062381EA7F1010741
:100A3000F4DC07E0D4E9012118F805009047206AAA
:100A4000401C2062281EA5F10105F3DC2046FFF7BB
:100A5000E4FE2078000602D50220BDE8F0870120E0
:100A6000FBE770472DE9FF4F0C461E464FF0FF375E
:100A70008BB0D2E90001DDF860800A908A46C1F3AC
:100A80000A5505B93D46002108464FF00000BAF16D
:100A9000000F00F4400005DA00EB80004FF4400145
:100AA00001EA50004FEA9059B9F1010F00DDB94653
:100AB0000A9850EA4A000ED044F61050A5F2FF35CD
:100AC00045432F14B8F1000F1ED07542291E1EDDBC
:100AD000C9F100021CE0B8F1010F4FF0000001D095
:100AE000302103E0F24305E02154401CB042FBDB1F
:100AF00030460022002121540B99C1F80880C1E939
:100B000000200FB0BDE8F08FBD1B6D1CDEE74A462C
:100B100000DA694206A800F053FA06AB07CB03AB34
:100B200007C350460A9900F030FB8DE80700A0F596
:100B300000501F3800900398002D09DD42F21F017C
:100B40004A46084403A90390684600F08FFD08E078
:100B5000A0F500504A461F3803A90390684600F0EC
:100B600099FD8DE807000004000C03D04FF0FF3022
:100B7000410800E01046B8F1000F03D000220092B7
:100B800015461FE0751E06D400F094F902F13002FC
:100B900062556D1EF8D5B3460122084302D00022EB
:100BA0007F1C04E02078302801D100227F1E002A1B
:100BB000099787D01DE0112D07DA00F07BF930325C
:100BC00062556D1C50EA0102F5D108430FD1002196
:100BD000681E05E0235C625C6354491C2254401E7D
:100BE0008142F7DBAB46A81B401E099001E000984C
:100BF00048B1002004F80B000B98099AC0F808804F
:100C0000C0E9002B7DE711264FF000085AE72DE9D7
:100C1000F04F88460446D21D22F0070191B0D1E979
:100C20000001CDE90A0100F06BFE02460B98C00FEF
:100C300001D02D2007E02068810701D52B2002E09C
:100C4000202101EAC000032A099001D0072A05DB10
:100C500003464146204600F073F90FE120788006F4
:100C600001D5E06900E00620B8F1650F814606D0A5
:100C7000B8F1660F18D0B8F1670F72D132E00020DA
:100C8000B9F1110F009001DB112301E009F101031B
:100C90000AAA01A90CA8FFF7E5FEDDE90C70002601
:100CA00009F10105834648E001204B4600904FF0D2
:100CB00000470AAA01A90CA8FFF7D4FEDDE90DB090
:100CC0000C995D46002618B909F1010001EB0005F9
:100CD000B9EB050003D4C0F1FF3609F10105A5EB1E
:100CE00009002BE0B9F1010F01DA4FF001090020F2
:100CF000B9F1110F0090484601DD112300E00346D1
:100D00000AAA01A90CA8FFF7ADFEDDE90C704D465B
:100D100000268346207800070AD4AB4500DA5D46FA
:100D200001A8012D04DD411911F8011C302907D05B
:100D30004F4502DA17F1040F04DA0120824610E071
:100D40006D1EEEE7002F02DCED1B3E4403E0781C35
:100D5000A84200DD0546A7EB060000F1010A4FF0AE
:100D600000472078000703D4AA4501DB4FF0FF3A83
:100D70000021B7F1004F0DF143088DF8431023D047
:100D800002202B23002F01DA7F422D234FF00A0C83
:100D9000011EA0F1010000DC4FB197FBFCF10CFB40
:100DA00011720F4602F1300208F8012DF0E7A8F1A8
:100DB000010003702188090501D5452100E0652166
:100DC000A0F1010800F8011C09980FA9A1EB080780
:100DD00007F1070700B1012000EB050101EBEA7004
:100DE000A1693844A1EB0000A0F10100A0612078C6
:100DF000C00602D42046FFF7F9FC099830B1D4E9C7
:100E000001219047206A00F1010020622078C0068D
:100E100020D52046FFF7EAFC1CE0002E04DBB3459A
:100E200002DD01A8805D00E03020D4E90121904777
:100E3000206A761C401CBAF1010A20620AD1FFF731
:100E400055FAC0680168405CD4E901219047206AE6
:100E5000401C2062281EA5F10105DEDC07E0D4E974
:100E6000012118F8010B9047206A401C2062381EAF
:100E7000A7F10107F3DC2046FFF7CFFC022011B0F9
:100E800040E6000001694A1C02610878704700B51D
:100E90008FB0CDE901310021059105497944CDE9B3
:100EA000031011466846FFF7F9FC0FB000BD0000C3
:100EB000E5FFFFFF30B5B0F10A024FEA900E71F185
:100EC00000034EEA817EB0EB0E0061EB91014FEA28
:100ED000101E4EEA017E10EB0E0041EB11114FEA9D
:100EE000102E4EEA016E10EB0E0041EB11214FEA7D
:100EF000104E4EEA014E10EB0E0041EB114140182E
:100F000041F100014FEAD00040EA41704FEAD101BF
:100F100010EB80054FEA810444EA907444EB01042D
:100F20006D1944EB0404521BA3414FF0000348BF6A
:100F30000A3200D530BD401C41F1000130BD000037
:100F40002DE9F0411F46044603260168072A01F4F3
:100F5000006004DB08B116A505E016A503E008B1A2
:100F600015A500E015A521F010002060A069C01EA5
:100F7000A0610FB1401EA0612046FFF737FC4FB1C2
:100F8000D4E9012138469047206A401C2062C01CE9
:100F9000206206E0206AFAE7D4E9012115F8010B86
:100FA0009047761EF8D22046FFF737FCBDE8F08167
:100FB0004E414E006E616E00494E4600696E6600FD
:100FC0002DE9F047814616468AB035487844D0E985
:100FD000002380680092CDE90130314878440C3814
:100FE000D0E90223006903924FF03702CDE90430C3
:100FF00041F69B30014491FBF2F0A0F1800502FB29
:1010000010141B3C02D56442012000E00020DFF8F0
:1010100090A080460027FA44AAF1C60A0DE0E00736
:1010200009D03246684607EB47010AEB810100F020
:1010300031FB8DE8070064107F1C002CEFD1184FA6
:101040007F44B43F17E0E80713D007EB04100DF11D
:10105000180A90E80E00AAE80E00C068F04201D11C
:1010600098190890324606A903A800F013FB03ABB9
:1010700007C36D10641C002DE5D132466946B8F1F6
:10108000000F03A802D000F0F1FA01E000F002FB2B
:10109000C9E90001C9F808200AB0BDE8F0870000DE
:1010A000E40D00007546FFF725F9AE4605006946D8
:1010B000534620F00700854618B020B5FFF772F8B8
:1010C000BDE820404FF000064FF000074FF0000849
:1010D0004FF0000B21F00701AC46ACE8C009ACE8CA
:1010E000C009ACE8C009ACE8C0098D4670470446A9
:1010F000AFF300802046FFF740F800004FF0013CBE
:1011000050F8042B51F8043B9A4221D1A2EB0C0376
:10111000934313EACC1317D150F8042B51F8043B36
:101120009A4215D1A2EB0C03934313EACC130BD1D3
:1011300050F8042B51F8043B9A4209D1A2EB0C035E
:10114000934313EACC13DBD04FF00000704700BF8D
:10115000D01A01BAB1FA81F101F0180122FA01F0B6
:10116000CB40C1F12001DBB2C0B2C01A2CFA01F3AE
:10117000D11A914311EAC311E6D1704701491820F1
:10118000ABBEFEE72600020070475FEA400C08BFD6
:1011900091F0000F4FEA8C234FEAC12243EA5151EC
:1011A0004FEA1C5018BF00F5F0404FEA300018BF5E
:1011B00041F000415FEA6C5C00F02980BCF1FF3F28
:1011C00008BF40F080407047130C06BF12044FF078
:1011D000100C4FF0000C130E04BF12020CF1080C9F
:1011E000130F04BF12010CF1040C930F04BF920003
:1011F0000CF1020CD30F04BF52000CF1010C11468C
:101200004FF00002A0F11F00A0EB0C00704711F09E
:10121000004F08BF704731F000413FF4D5AF0B0CD1
:1012200006BF09044FF0100C4FF0000C0B0E04BF6A
:1012300009020CF1080C0B0F04BF09010CF1040C9E
:101240008B0F04BF89000CF1020CCB0F04BF4900C7
:101250000CF1010CCCF12003A0EB0C0022FA03F3FB
:1012600002FA0CF241EA030100F10100704720F09C
:101270007F4C80EA030023F07F47ACEB070303F5C4
:101280007C5300F0004003F1FF032DE980494FEA51
:10129000154B09B44FEA144325EA0B4E24EA0348E0
:1012A0000FF2042606EB132749083E785FEA320264
:1012B00003FB0667C7F5000707FB06F64FEA54373E
:1012C0004FEAD64606F1020607FB066CCCF1005C3D
:1012D0004FEA1C472CEA074C07FB06F40CFB06F50B
:1012E00004EB15464FEA961634BF00204FF000403D
:1012F0004FEAD13706FB07FC4FEA1C4C0CFB0BF7FF
:10130000D21B03FB0CF761EB07010CFB0EF7B0EBF4
:10131000074072EB17420CFB08F734BFA2EB074201
:10132000B2EB074261EB17414FEA0C444FEA9107D9
:1013300006FB07FC4FEA1C4C0CFB0BF7B0EBC7405D
:1013400072EB573203FB0CF734BFA2EBC742B2EB90
:10135000C74261EB57310CFB0EF7B0EBC70072EBE5
:1013600057720CFB08F734BFA2EBC702B2EBC702FF
:1013700061EB5771039F4FEA816141EA921104EBDF
:10138000CC044FEAD1374FEA826206FB07FC42EAFF
:1013900090124FEA80604FEA1C4C0CFB0BF7D21BFB
:1013A00003FB0CF761EB07010CFB0EF7B0EB0740FA
:1013B00072EB17420CFB08F734BFA2EB0742B2EB0B
:1013C000074261EB17414FEA8C554FEA910704EB56
:1013D0009C2406FB07FC4FEA1C4C0CFB0BF7B0EB04
:1013E000C74072EB573203FB0CF734BFA2EBC74286
:1013F000B2EBC74261EB57310CFB0EF7B0EBC70005
:1014000072EB57720CFB08F734BFA2EBC702B2EBCA
:10141000C70261EB577115EB4C254FEA816141EA38
:1014200092114FEA82624FEAD13742EA901206FBEC
:1014300007FC44F100044FEA80604FEA1C4C0CFBAF
:101440000BF7D21B03FB0CF761EB07010CFB0EF74C
:10145000B0EB074072EB17420CFB08F734BFA2EB6E
:101460000742B2EB074261EB174115EB1C154FEA3F
:10147000813141EA92414FEA823242EA90424FEA98
:1014800080304FEA0C7644F1000448EA03434EEA08
:101490000B484FF0000EB2EB080C71EB030724BFB2
:1014A000624639464EEB0E0E4FF0000B00185241CB
:1014B00049414BEB0B0BB2EB080C71EB03077BF1D3
:1014C000000B24BF624639464EEB0E0E4FF0000B68
:1014D0000018524149414BEB0B0BB2EB080C71EB7E
:1014E00003077BF1000B24BF624639464EEB0E0E1C
:1014F00051EA020718BF46F0010616EB0E7655F1C9
:10150000000254F1000103D5BDE88901BDE800885F
:10151000BDE88901BDE80048B619524141EB01011F
:10152000A3F10103704780807F7E7D7C7B7A797890
:10153000777676757473727171706F6E6E6D6C6C98
:101540006B6A6A696868676666656464636362613A
:101550006160605F5F5E5E5D5D5C5C5B5B5A5A59BB
:101560005958585757565655555554545353525227
:101570005251515050504F4F4F4E4E4D4D4D4C4C7F
:101580004C4B4B4B4A4A4A494949484848474747C8
:101590004746464645454544444444434343434205
:1015A000424242414141002B26D4770021D01CB554
:1015B0004FEA370703B44FF010004FF010014FF01F
:1015C00000000FBCBDE810400BF1010BBBF1010F97
:1015D00008BF5FEA170722BF12F1010211F10101F2
:1015E0004FF0004143F1000300F0004043EA0000E7
:1015F0007047F9D35708DAE746EA064613F1400F79
:101600004FEA16461FDD13F1200FDFBF16430A46CF
:10161000002120335B42C8D0C3F1200746EA0646CA
:1016200002FA07F74FEA164646EA0706C3F1200713
:1016300022FA03F201FA07F721FA03F14FF000034F
:1016400042EA0702B1E746EA020646EA06464FEAE0
:10165000164646EA0106BCBF46EA0646360C4FF07F
:1016600000034FF000024FF000019EE72DE9C04853
:10167000934630B491E8380007C831EA400C48BFBF
:1016800034EA430C03D5FFF7F2FDFFF78CFFF0BC03
:10169000BDE800882DE9C048934630B491E8380091
:1016A00007C810F0804F08BF13F0804F03D100F03F
:1016B00005F8FFF778FFF0BCBDE8008820F07F4711
:1016C00080EA030023F07F4C07EB0C03A3F57C5367
:1016D00000F00040A3F1FE0392F0000F00F0B38091
:1016E00095F0000F00F077802DE901494FEA114095
:1016F0004FEA144621EA004800FB06FC24EA0647AC
:1017000008FB06F607FB08F800FB07F718EB06488E
:101710004CEB164C4FEA124B18EB07484FEA1546B4
:101720004CEB174022EA0B4E0BFB06FC25EA064762
:101730000EFB06F607FB0EFE0BFB07F71EEB064E35
:101740004CEB164C4FF000061EEB074E4CEB174BC4
:1017500018EB0B0840F1000018EB0E0B58EB0008DB
:1017600040F100008F1A4FF000013CBFC943661BD7
:1017700014BFB5EB040C00213CBFC943F61B4FEA74
:1017800017444EEA8E0E27EA04454FEA1C4704FB35
:1017900007622CEA074C05FB07F70CFB05F604FB78
:1017A0000CFC16EB074642EB174216EB0C4642EBDD
:1017B0001C421BEB060658EB0202414146EA9E061C
:1017C00001D5BDE80189B619524141EB0101A3F1F0
:1017D0000103BDE801894FEA14454FEA114724EAA5
:1017E000054621EA074C05FB07F406FB07F70CFB4F
:1017F00006F105FB0CFC11EB074144EB17444FEAE3
:10180000124711EB0C4144EB1C4422EA074C05FB48
:1018100007F206FB07F70CFB06F605FB0CFC16EBC4
:10182000074642EB174216EB0C4642EB1C456A1882
:1018300054F1000148BF7047B619524141EB010114
:10184000A3F10103704795F0000F37D04FEA114222
:101850004FEA144721EA024624EA074C02FB07F14B
:1018600006FB07F70CFB06F402FB0CFC14EB074429
:1018700041EB17414FEA154714EB0C4441EB1C4177
:1018800025EA074C02FB07F506FB07F70CFB06F6FB
:1018900002FB0CFC16EB074645EB174516EB0C4616
:1018A00045EB1C42121951F1000148BF7047B619AF
:1018B000524141EB0101A3F1010370474FEA144586
:1018C0004FEA114724EA054621EA074C05FB07F1D8
:1018D00006FB07F70CFB06F24FF0000605FB0CFCBD
:1018E00012EB074241EB174112EB0C4251EB1C414A
:1018F00048BF7047921841EB0101A3F10103704703
:10190000490050EAC12018BF04204A0D18BF40F01A
:10191000010040F2FF72B2EB515F08BF40F00200DD
:10192000012808BF0520704730380A2801D201205D
:10193000704700207047000010B500290AD00878D1
:10194000002807D005487844FFF7D8FB002801D0CD
:10195000002010BD0248784410BD0000A60400001D
:101960009E0400000808A0F500114FEA31017047FD
:1019700043004FEAD30C4FEA3C0C43401FBF4007E3
:101980000CF1605113F0FE4F70471CF0006F03D153
:1019900000200CF0004170470CF0004343EA507007
:1019A00010B540EACC0000F066F900BF00000092DC
:1019B0004FEA0001FFF7D6BF4FF000414FF00000A3
:1019C000A1F50021704700004FF47F0C1CEAD012F3
:1019D0001EBF1CEAD11392EA0C0F93EA0C0F00F021
:1019E000858090EA010F48BF42F4807240F4000CF9
:1019F00041F400002CF07F4120F07F4000B581428F
:101A0000A2EB03020FF2081CACEB504EC0F1000039
:101A10009EF800E04FEA4E0E00FB0EFC38BF490076
:101A20004FEA2C1C02F5FA020CFB0EF34FEACE1E15
:101A30004FEA112C4FEAC1210EEB635E42EB2242CA
:101A40000EFB0CFC4FEA1C5300FB03114FEA112C58
:101A50004FEA01310EFB0CFC4FEADC4C00FB0C1191
:101A6000C14228BF09184CEB03335DF804EB10EBBF
:101A7000410143EBC250B2F57C0F38BF704729D506
:101A800012F0F00F1CBF00F1C04000F000407047A2
:101A9000008182838485868788898B8C8D8E8F9147
:101AA0009293959697999A9C9D9FA0A2A3A5A7A86B
:101AB000AAACAEB0B2B3B5B7B9BCBEC0C2C5C7C997
:101AC000CCCED1D4D7D9DCDFE2E6E9ECF0F3F7FAFB
:101AD000FE0000004FEA400C0CF1807CBCF17E4F10
:101AE00028BF7047B0F1C04000F00BB990EA010F79
:101AF0000CEAD11348BF42F48072624538BF634597
:101B000007D213F47F0F16D080EA010000F00040E6
:101B1000704710B500F0AFF8097EFC3E00F005B844
:101B200080EA010000F00040704780EA010000F008
:101B3000004000F0E6B812F47F0F04BF024870477F
:101B400080EA010000F0DDB80000C07FB0FA80F349
:101B500010FA03F2C3F19D030AD0D90501EB12205C
:101B6000530638BF704700F1010008BF20F00100A4
:101B7000704700004FF47F0C1CEAD0121EBF1CEA15
:101B8000D11392EA0C0F93EA0C0F00F0478090EA11
:101B9000010F48BF42F480724FF0004C4CEA002025
:101BA0004CEA012102EB0302A0FB0113A2F50002A3
:101BB000002918BF43F001035B0028BF4FEA33033D
:101BC00042EB22425FEA132C4CEBC2502EBFBCEB1F
:101BD000436FB2F57C0F70474FEA036CBCF1004FC6
:101BE00008BF20F00100B2F57C0F38BF70470BD55D
:101BF00082F0FF0212F5803FC8BF704700F1C0407D
:101C0000D8BF00F00040704700F5000C5FEA4C0CB4
:101C100048BF7047B0F1C04000F073B890EA010FC0
:101C20000CEAD11348BF42F48072624538BF634565
:101C300004D280EA010000F00040704710B500F0C7
:101C40001AF800BF8900013E00F007B800F009B89B
:101C50005FEA410C5FEA1C6C08D080EA010000F0EA
:101C600050B85FEA400C5FEA1C6CF6D14FF00040C0
:101C7000A0F5800070470EF1020E2EF0030E5EF804
:101C8000044B244204D44FEA4102B2F17F4F11D8F1
:101C90004FEA4003B3F17F4F0CD80ED14FEAD07C0E
:101CA000B2F17F4F0CEB4C0C0CF1020C08BF4CEB6B
:101CB000D17C04E04FF0080C01E04FEAD17C0CEB42
:101CC0004C0324FA03F404F00704B4F1040C06D224
:101CD0000EEB840CBDE810404CF0010C6047DFE8CF
:101CE0000CF0070802024FF00040A0F5800010BD84
:101CF0000846420018BFD2F1807288BF00F0004051
:101D000010BDFF2141EAD050C0057047FEF77FBFEC
:101D10003031323334353637383941424344454621
:101D2000403058003031323334353637383961621B
:101D3000636465664030780002400000000000A047
:101D40000000000005400000000000C80000000086
:101D50000C4000000000409C000000001940000002
:101D60000020BCBE0000000034400000BFC91B8E34
:101D700000000004B5400000504BCFD06607E2CF12
:101D8000010000006C4100003E8251AADFEEA73442
:101D900001000000D9420000DCB5A0E23A301F97F4
:101DA000FFFFFFFFB4450000FD25A0C8E9A3C14F18
:101DB000FFFFFFFFFF3F0000000000800000000069
:101DC000FF3F00000000008000000000081E00002F
:101DD0000000001004000000080100000C1E0000BC
:101DE0000400001064020000240100001C00000038
:101DF00043000000F8FFFFFF0C0000000E00000091
:0C1E00000F0000002E000000C0C62D00E6
:04000005000000CD2A
:00000001FF
